:100000000C945D000C9485000C9485000C94850084
:100010000C9485000C9485000C9485000C9485004C
:100020000C9485000C9485000C9485000C94DE04DF
:100030000C9485000C9485000C9485000C9485002C
:100040000C9494040C9485000C9462040C943C046D
:100050000C9485000C9485000C9485000C9485000C
:100060000C9485000C94850000000008000201003B
:100070000003040700000000000000000000000072
:10008000250028002B0000000000240027002A0083
:10009000040404040404040402020202020203032E
:1000A0000303030301020408102040800102040836
:1000B00010200102040810209A0511241FBECFEF62
:1000C000D8E0DEBFCDBF11E0A0E0B1E0E8E5F1E1AE
:1000D00002C005900D92AA36B107D9F722E0AAE630
:1000E000B1E001C01D92A535B207E1F710E0CDE502
:1000F000D0E004C02197FE010E94A408CC35D107AE
:10010000C9F70E9424060C94AA080C94000090E001
:10011000FC01EC55FF4F249180579F4FFC018491C7
:10012000882399F090E0880F991FFC01EA57FF4F50
:10013000A591B491FC01E458FF4F859194918FB73C
:10014000F894EC91E22BEC938FBF0895CF92DF925D
:10015000EF92FF92DC01A03282E0B807D4F5A53B14
:10016000B10514F0A4EBB0E040913B0228E830E088
:10017000241B310947FD3395220F331F220F331FF4
:100180006901330FEE08FF0840913C0228E532E098
:10019000241B310947FD3395220F331F220F331FD4
:1001A000032E000C440B550B2C193D094E095F0919
:1001B000B7FF02C0B0E0A0E00E945F0824EB30E08F
:1001C00040E050E00E943508C20ED31EE41EF51E2A
:1001D000D601E0913A02EC3080F520913B0288E8AC
:1001E00090E0821B910927FD9395880F991F880F36
:1001F000991FA817B90784F020913C0288E592E086
:10020000821B910927FD9395880F991F880F991FCD
:10021000A817B9070CF4CD010297880F991F4FB7A3
:10022000F8942E2F30E0F901EE0FFF1FE20FF31FBD
:10023000EB5EFD4F928381834FBFFF90EF90DF9085
:10024000CF900895AF92BF92CF92DF92EF92FF923C
:100250000F931F93CF93DF936C017B018B01040FEE
:10026000151FEB015E01AE18BF08C017D10759F08A
:100270006991D601ED91FC910190F081E02DC601CC
:100280000995892B79F7C501DF91CF911F910F91C6
:10029000FF90EF90DF90CF90BF90AF900895FC015A
:1002A000538D448D252F30E0842F90E0821B930BDB
:1002B000541710F0CF96089501970895FC01918D81
:1002C000828D981761F0A28DAE0FBF2FB11D5D9684
:1002D0008C91928D9F5F9F73928F90E008958FEF26
:1002E0009FEF0895FC01918D828D981731F0828DDA
:1002F000E80FF11D858D90E008958FEF9FEF089531
:10030000FC01918D228D892F90E0805C9F4F821B94
:1003100091098F739927089588E791E00E948001E1
:1003200021E0892B09F420E0822F089580E090E0FD
:10033000892B29F00E948C0181110C9400000895F2
:10034000FC01A48DA80FB92FB11DA35ABF4F2C914A
:10035000848D90E001968F739927848FA689B78941
:100360002C93A089B1898C91837080648C93938D38
:10037000848D981306C00288F389E02D80818F7DDB
:1003800080830895EF92FF920F931F93CF93DF9393
:10039000EC0181E0888F9B8D8C8D98131AC0E889C1
:1003A000F989808185FF15C09FB7F894EE89FF8990
:1003B0006083E889F98980818370806480839FBF2E
:1003C00081E090E0DF91CF911F910F91FF90EF902E
:1003D0000895F62E0B8D10E00F5F1F4F0F7311273E
:1003E000E02E8C8D8E110CC00FB607FCFACFE88979
:1003F000F989808185FFF5CFCE010E94A001F1CF60
:10040000EB8DEC0FFD2FF11DE35AFF4FF0829FB7EC
:10041000F8940B8FEA89FB8980818062CFCFCF93DC
:10042000DF93EC01888D8823B9F0AA89BB89E8891C
:10043000F9898C9185FD03C0808186FD0DC00FB6C2
:1004400007FCF7CF8C9185FFF2CF808185FFEDCF40
:10045000CE010E94A001E9CFDF91CF91089590E0F5
:10046000FC01E859FF4F2491FC01EC55FF4F3491FA
:10047000FC01E057FF4FE491EE23C9F0222339F04D
:10048000233001F1A8F4213019F1223029F1F0E0F4
:10049000EE0FFF1FE458FF4FA591B4918FB7F8946A
:1004A000EC91611126C030953E233C938FBF089597
:1004B0002730A9F02830C9F0243049F78091800016
:1004C0008F7D03C0809180008F7780938000DFCF85
:1004D00084B58F7784BDDBCF84B58F7DFBCF8091D2
:1004E000B0008F778093B000D2CF8091B0008F7D25
:1004F000F9CF3E2BDACF3FB7F894809170019091FD
:100500007101A0917201B091730126B5A89B05C03D
:100510002F3F19F00196A11DB11D3FBFBA2FA92F82
:10052000982F8827BC01CD01620F711D811D911D7F
:1005300042E0660F771F881F991F4A95D1F70895EB
:100540008F929F92AF92BF92CF92DF92EF92FF92E3
:100550006B017C010E947B024B015C01C114D10440
:10056000E104F104B9F00E947B02681979098A0953
:100570009B09683E73408105910580F321E0C21A12
:10058000D108E108F10888EE880E83E0981EA11CCE
:10059000B11CE4CFFF90EF90DF90CF90BF90AF9071
:1005A0009F908F900895089590E080E00895CF93F4
:1005B000DF93EC0160E08E810E942F0261E08E816A
:1005C0000E942F0260E08E810E942F028BE891E052
:1005D0000197F1F7DF91CF910895CF92DF92EF92DB
:1005E000FF920F931F93CF93DF936C017C0187E001
:1005F000E80EF11CD0E0C0E0062F10E0B8010C2E90
:1006000002C0759567950A94E2F76170F7018191D0
:100610007F010E942F022196C430D10579F7C601CF
:10062000DF91CF911F910F91FF90EF90DF90CF90CE
:100630000C94D702CF92DF92EF92FF920F931F9309
:10064000CF93DF93EC01F62E642F8C810E942F0252
:100650008D818F3F19F060E00E942F020F2D10E076
:100660008F8584FF25C06E0187E0C80ED11CF12C58
:10067000E12CB8010E2C02C0759567950A94E2F73B
:100680006170F60181916F010E942F02FFEFEF1A56
:10069000FF0A88E0E816F10461F7CE01DF91CF91FF
:1006A0001F910F91FF90EF90DF90CF900C94D702A5
:1006B000B80184E0759567958A95E1F7CE010E94AF
:1006C000ED026F2DCE01DF91CF911F910F91FF9021
:1006D000EF90DF90CF900C94ED0240E0682F8DE317
:1006E00092E00C941A0381E00E946D038BE39FE17A
:1006F0000197F1F70895CF93DF93823029F4909119
:100700004C02986090934C028093500210925102D8
:1007100080E48093520280E18093530280E58093CD
:100720005402809141020E948700809142028F3FD3
:1007300011F00E948700809143020E948700CDE360
:10074000D2E09E012D53324080914C0284FD0AC0BC
:1007500084E090E02196281739073CF48E810E94AE
:100760008700EFCF88E090E0F5CF8BE39DE0019725
:10077000F1F760E0809141020E942F0260E08091D9
:1007800043020E942F02809142028F3F19F060E0E5
:100790000E942F0280914C0284FD34C063E08DE3FF
:1007A00092E00E94ED02CBE4D6E4CE010197F1F78E
:1007B00063E08DE392E00E94ED022197F1F763E0A0
:1007C0008DE392E00E94ED0283E592E00197F1F75C
:1007D00062E08DE392E00E94ED0280914C02806223
:1007E0000E946D0384E080934D028CE00E946D03B3
:1007F0000E94730382E080934E0286E0DF91CF91E6
:100800000C946D0380620E946D038BE496E4019763
:10081000F1F780914C0280620E946D0383E592E0C3
:100820000197F1F780914C0280620E946D03D5CF51
:1008300090915002691710F06FEF690FE62FF0E00A
:10084000E35CFD4F9489890F80680C946D0341E04F
:100850000E941A0381E090E00895FB0101900020BE
:10086000E9F73197AF01461B570BDC01ED91FC9185
:100870000280F381E02D09941F920F920FB60F9220
:1008800011242F933F934F935F936F937F938F9395
:100890009F93AF93BF93EF93FF9388E791E00E94FC
:1008A000A001FF91EF91BF91AF919F918F917F91A7
:1008B0006F915F914F913F912F910F900FBE0F90CD
:1008C0001F9018951F920F920FB60F9211242F931D
:1008D0008F939F93EF93FF93E0918801F0918901AB
:1008E0008081E0918E01F0918F0182FD1BC090818B
:1008F000809191018F5F8F7320919201821741F057
:10090000E0919101F0E0E858FE4F958F80939101BE
:10091000FF91EF919F918F912F910F900FBE0F90AC
:100920001F9018958081F4CF1F920F920FB60F92EF
:1009300011242F933F938F939F93AF93BF938091F5
:100940006C0190916D01A0916E01B0916F01309199
:100950006B0123E0230F2D3758F50196A11DB11D22
:1009600020936B0180936C0190936D01A0936E01B5
:10097000B0936F018091700190917101A09172010B
:10098000B09173010196A11DB11D809370019093E8
:100990007101A0937201B0937301BF91AF919F91C8
:1009A0008F913F912F910F900FBE0F901F90189530
:1009B00026E8230F0296A11DB11DD2CF1F920F92E0
:1009C0000FB60F9211242F933F934F935F936F9322
:1009D0007F938F939F93AF93BF93CF93DF93EF93C7
:1009E000FF9380916A01C0913902D0E087FF24C053
:1009F000109285001092840080916A018F5F80932D
:100A00006A0180916A01082E000C990B8C179D07D2
:100A100024F480916A018C30C4F18091840090911B
:100A20008500049680349C4908F47AC08091840043
:100A300090918500049676C080916A01082E000C82
:100A4000990B8C179D07C4F6E0916A018E2FEE0F6B
:100A5000990BFC01EE0FFF1FE80FF91FEB5EFD4F36
:100A6000808186FFC9CFE0916A018E2FEE0F990B2E
:100A7000FC01EE0FFF1FE80FF91FEB5EFD4F8081B9
:100A800060E08F730E942F02B7CF209184003091D5
:100A90008500E0916A018E2FEE0F990BFC01EE0F9D
:100AA000FF1FE80FF91FEB5EFD4F81819281820FDE
:100AB000931F9093890080938800E0916A018E2FA4
:100AC000EE0F990BFC01EE0FFF1FE80FF91FEB5E15
:100AD000FD4F808186FF11C0E0916A018E2FEE0FDD
:100AE000990BFC01EE0FFF1FE80FF91FEB5EFD4FA6
:100AF000808161E08F730E942F02FF91EF91DF915F
:100B0000CF91BF91AF919F918F917F916F915F91A5
:100B10004F913F912F910F900FBE0F901F901895FE
:100B200080E49CE990938900809388008FEF809304
:100B30006A01E3CFCF9310927B0110927A0188EE85
:100B400093E0A0E0B0E080937C0190937D01A093BE
:100B50007E01B0937F0184E091E0909379018093CE
:100B6000780185EC90E0909385018093840184EC7A
:100B700090E0909387018093860180EC90E09093C1
:100B800089018093880181EC90E090938B018093A0
:100B90008A0182EC90E090938D0180938C0186EC29
:100BA00090E090938F0180938E01109291011092AA
:100BB00092011092930110929401109240021092AF
:100BC0003F0286E191E090933E0280933D028BE0EC
:100BD00080934102CFEFC09342028AE080934302A8
:100BE00087E08093440286E08093450285E080930D
:100BF000460284E080934702109248021092490214
:100C000010924A0210924B0210924C0281E00E9414
:100C10007B03809139028C30A0F491E0980F90937F
:100C2000390280933A0290E0FC01EE0FFF1FE80FBB
:100C3000F91FEB5EFD4F88EB9BE092838183CF91A0
:100C40000895C0933A02FBCFCF93DF93CDB7DEB7C1
:100C5000A1970FB6F894DEBF0FBECDBF789484B5D0
:100C6000826084BD84B5816084BD85B5826085BDA8
:100C700085B5816085BD80916E00816080936E0036
:100C80001092810080918100826080938100809128
:100C900081008160809381008091800081608093D9
:100CA00080008091B10084608093B1008091B00099
:100CB00081608093B00080917A00846080937A0094
:100CC00080917A00826080937A0080917A008160BE
:100CD00080937A0080917A00806880937A001092E5
:100CE000C100E0918801F091890182E08083E09168
:100CF0008401F09185011082E0918601F0918701D5
:100D00008FEC808310929001E0918C01F0918D0125
:100D100086E08083E0918A01F0918B01808180617F
:100D20008083E0918A01F0918B01808188608083CB
:100D3000E0918A01F0918B01808180688083E0914D
:100D40008A01F0918B0180818F7D808382E00E94F7
:100D50007B0380913A028C3008F050C089E00E94F9
:100D6000870080913A02282F30E0F901EE0FFF1F33
:100D7000E20FF31FEB5EFD4F9081907C99609083B2
:100D800010923B0210923C022CE0622F0E949808C5
:100D9000829FB001112430E020E0AB01420F531FCD
:100DA000FA01EE0FFF1FE40FF51FEB5EFD4F908180
:100DB00096FD16C02F5F3F4F2C30310571F7811122
:100DC0000FC01092800082E0809381001092850015
:100DD00010928400B19A80916F00826080936F00BE
:100DE000E0913A028E2F90E0FC01EE0FFF1FE80F1A
:100DF000F91FEB5EFD4F8081806480830E94730346
:100E000060E080E00E9418046EE171E08DE392E002
:100E10000E942D0461E080E00E94180468E271E005
:100E20008DE392E00E942D0468EB7BE080E090E08F
:100E30000E94A0020E94730360E085E00E941804F3
:100E400067E371E08DE392E00E942D0461E080E0B1
:100E50000E94180460E471E08DE392E00E942D048A
:100E600080E4382E9AE0892E912CA12CB12C20E020
:100E7000C22E20E0D22E61E08AE00E941804309257
:100E80007C0080917A00806480937A0080917A005F
:100E900086FDFCCF90917800809179008927982772
:100EA000892790937701809376012C01092E000CFD
:100EB0006608770897FF87C06DE288E791E00E9497
:100EC000C20122273327A9012419350946095709E8
:100ED00019A28E010F5D1F4FCA01B901A50194012E
:100EE0000E946708605DF80162938F01211531054A
:100EF0004105510589F70115110529F0B80188E769
:100F000091E00E942D046BE471E088E791E00E947B
:100F10002D0480917601909177018935924084F07B
:100F200084EB90E00E94A6006EE471E08DE392E015
:100F30000E942D0468EE73E080E090E00E94A00221
:100F40000091760110917701093522E012070CF02B
:100F500080C061E08AE00E941804013981E018072E
:100F600044F065E571E08DE392E00E942D0408E80D
:100F700013E1C8018F559140C297D8F56CE571E037
:100F80008DE392E00E942D0408EB1BE084EB90E0DF
:100F90009093750180937401E0907401F090750155
:100FA000F7FC34C0C7010E94A60063E070E080E057
:100FB00090E00E94A002F1E0EF1AF108F0927501B2
:100FC000E0927401E9CFA301920119A28E010F5D95
:100FD0001F4FCA01B901A50194010E946708605D15
:100FE000F80162938F01211531054105510589F7FB
:100FF00082CF0F35E1E01E074CF663E671E08DE32A
:1010000092E00E942D0404EF11E0C0CF1092750110
:1010100010927401E0907401F090750125EBE216D6
:10102000F1048CF4C7010E94A60063E070E080E048
:1010300090E00E94A0028FEFE81AF80AF092750182
:10104000E0927401E7CFB801110F880B990B0E9451
:10105000A002C114D10409F40ECF0E948C01882390
:1010600009F409CF0E94000006CF052E97FB1EF45D
:1010700000940E944C0857FD07D00E94670807FCA7
:1010800003D04EF40C944C08509540953095219522
:101090003F4F4F4F5F4F08959095809570956195A4
:1010A0007F4F8F4F9F4F08950E948908A59F900DF5
:1010B000B49F900DA49F800D911D11240895B7FF3A
:1010C0000C9454080E945408821B930B0895A1E2CB
:1010D0001A2EAA1BBB1BFD010DC0AA1FBB1FEE1FB2
:1010E000FF1FA217B307E407F50720F0A21BB30BFD
:1010F000E40BF50B661F771F881F991F1A9469F779
:1011000060957095809590959B01AC01BD01CF01D4
:101110000895A29FB001B39FC001A39F700D811DD0
:101120001124911DB29F700D811D1124911D0895F0
:10113000991B79E004C0991F961708F0961B881F29
:101140007A95C9F780950895EE0FFF1F0590F491E9
:08115000E02D0994F894FFCF93
:1011580000000000C20122014F010F0280015E0160
:1011680072010000000027042201D402D302636147
:10117800722077697065720053656E73696E6720B7
:10118800646576696365005261696E66616C6C00BE
:10119800496E74656E736974792D000D0A00204ECE
:1011A800494C20200020204C4F5720004D454449F1
:0A11B800554D00204849474820002B
:00000001FF
